:020000040800F2
:1000000070040020A1110008C9090008CB090008EC
:10001000CD090008CF090008D10900080000000040
:10002000000000000000000000000000D3090008EC
:10003000D509000800000000D7090008D909000808
:10004000C5110008C9110008CD110008D111000820
:10005000D5110008D9110008DD110008E1110008D0
:10006000E5110008E9110008ED110008F111000880
:10007000F5110008F9110008FD110008011200082F
:1000800005120008091200080D12000811120008DC
:1000900015120008191200081D120008211200088C
:1000A00025120008291200082D120008311200083C
:1000B00035120008391200083D12000841120008EC
:1000C00045120008491200084D120008511200089C
:1000D00055120008591200085D120008611200084C
:1000E00065120008691200086D12000871120008FC
:1000F00075120008791200087D12000881120008AC
:1001000085120008891200088D120008911200085B
:1001100095120008991200089D120008A11200080B
:10012000A5120008A9120008AD120008B1120008BB
:10013000B5120008B9120008BD120008C11200086B
:10014000C5120008C9120008CD120008D11200081B
:10015000D5120008D9120008DD120008E1120008CB
:10016000E5120008E9120008ED120008F11200087B
:10017000F5120008F9120008FD1200080000000046
:1001800001130008051300082DE9F843040016D0F8
:100190002078DFF8F462C10713D5B06800F00C00D6
:1001A000042807D0B06800F00C0008283DD1706822
:1001B00041023AD53068810303D56068002800F019
:1001C0005E812078B14F810719D5B06810F00C0F0F
:1001D00007D0B06800F00C0008285BD170684102BD
:1001E00058D43068810703D5E068012840F0478182
:1001F0003168206921F0F80141EAC00131602178BD
:10020000080779D56069A249002868D001220A60F0
:1002100000F042F90546706F81076DD400F03CF99B
:10022000401B0228F7D903202CE16068B0F5803F1D
:1002300004D1306840F48030306011E0B0F5A02F78
:10024000306806D140F480203060316841F480315C
:1002500005E020F480303060316821F48021316085
:10026000606858B100F018F9054630688103A8D4D9
:1002700000F012F9401B6528F7D3D4E700F00CF921
:100280000546306881039CD500F006F9401B6528BF
:10029000F7D3C8E7E068A8B10121396000F0FCF8A5
:1002A00005463068810705D400F0F6F8401B0228A7
:1002B000F7D9B8E73068216920F0F80040EAC100BA
:1002C00030609CE7386000F0E7F805463168880741
:1002D00095D500F0E1F8401B0228F7D9A3E70860A4
:1002E00000F0DAF80546706F810705D500F0D4F804
:1002F000401B0228F7D996E7207841075FD5306C7C
:100300000025C1000AD400950125316C41F08051CF
:100310003164306C00F0805000900098DFF87481F8
:10032000D8F80000C10513D4D8F8000040F480705C
:10033000C8F8000000F0B0F88146D8F80000C10508
:1003400006D400F0A9F8A0EB09000228F5D96AE765
:10035000A068012805D00528306F06D140F00400C0
:100360003067306F40F0010005E040084000306722
:10037000306F20F00400306741F28938A06860B126
:1003800000F08AF88146306F810713D400F084F8BA
:10039000A0EB09004045F6D345E700F07DF8814623
:1003A000306F810706D500F077F8A0EB09004045D3
:1003B000F6D338E71DB1306C20F080503064A0696E
:1003C00000285ED0B16801F00C0108293AD002285B
:1003D0002AD10020386600F05FF8054630688101B8
:1003E00005D500F059F8401B0228F7D91BE7E06952
:1003F000216A626A0843A16A490840EA8210491EDC
:1004000040EA0140E16A40EA01607060012038661C
:1004100000F042F804463068810132D400F03CF824
:10042000001B0228F7D9FEE60020386600F034F8F9
:1004300004463068810124D500F02EF8001B022804
:10044000F7D9F0E601281AD0B068E26900F480011B
:10045000914202BF00F03F01226A91420FD147F65C
:10046000C071626A0140914202BF00F44031A26A49
:10047000914202BF00F07060E16A884201D0012021
:1004800000E00020BDE8F28300380240000047424F
:10049000800E47420070004001484068704700BF2E
:1004A0005C00002038B5040001D1012032BD00F00D
:1004B00021F808B900F022F800F012F800F023F853
:1004C000FFE7416100F001F832BD2068C16841F4E6
:1004D0000051C1600020686020216970A9707047D8
:1004E000242068702068C16821F40051C160204652
:1004F00000F0C9B804F13805687870470021297008
:10050000204600F017BA2068016921F4904101618A
:100510002068416921F02A0170472DE9F84305461A
:1005200005F138070C46787820281646984646D1BB
:10053000002C14BF002E012042D0387801283ED074
:10054000012139700020786021227A70FFF7A4FF22
:100550008146AE84EE840020387003E02A6814F8E7
:10056000011B5160E88CE0B1E88C411EE9844B46E8
:10057000A868CDF80080B0F5805F0DD100F022F8BA
:10058000B8B920882968C0F30800486028690028A5
:1005900014BF641CA41CE5E700F014F80028DDD0AB
:1005A00007E0CDF800804B460022402100F00CF817
:1005B00008B1032004E020207870002000E0022031
:1005C000BDE8F2830022802128462AE010B500F120
:1005D00038039C78202C22D109B1140001D10120CC
:1005E00010BD1C78012C1AD001241C7081628285F8
:1005F000C2850021596022229A7019700168CA6868
:1006000042F48072CA6001684A6942F001024A619C
:100610000068C16841F02001C160002010BD0220C7
:1006200010BD2DE9F041069C05460E4690461F463A
:10063000286801683140B1420CBF012000204045CC
:1006400017D114F1010FF3D024B1FFF725FFC01B20
:100650008442EDD22868C16821F4D07100F00CF812
:1006600005F13800202141708170002101700320C4
:1006700000E00020BDE8F081C160286841694908B8
:10068000490041617047D0B5064664273268116958
:10069000F06821F44051014311611924D3682D48B9
:1006A000B168034030690B4371690343F0690B4340
:1006B0000343D3605169B06921F440710143516132
:1006C000F36925482549B3F5004F1FD18A4218BF69
:1006D000824202D100F010FA01E000F005FA024671
:1006E000A4FB02017268D30F520000F04DFA00F033
:1006F00037F8FF0032376420B7FBF0F0420002F415
:10070000F87202EB011200F007001DE08A4218BFE8
:10071000824202D100F0F0F901E000F0E5F9024672
:10072000A4FB02017268930F920000F02DFA00F012
:1007300017F83F0132376420B7FBF0F000F0F00209
:1007400002EB011200F00F00316880188860D0BD04
:1007500000000000F369FFFF001401400010014099
:100760006421B0FBF1F107FB1107704710B500F0F1
:100770008FFA00F05DF800F02DF800F0A7F8DFF830
:100780002400DFF8244000F011F805E00122A11C4C
:1007900004F11C00FFF71AFFA08A0128F6D10020FF
:1007A00010BD0000D41000080000002038B5044639
:1007B00000F088FA054682B24FF0FF332146DFF899
:1007C0007001FFF7AAFE29B22046BDE8344000F0D0
:1007D00083BA000080B586B000F074F80022DFF81C
:1007E000D0010092016841F080010160026802F0CE
:1007F00080020092002200990092036843F00103F6
:100800000360016801F0010100910099009202214A
:10081000036843F00203036000F0C2F8DFF89401BC
:1008200001910292039201A900F05AFA07B000BDAB
:1008300080B592B0302106A800F040FB00F042F8ED
:10084000002000904FF48033DFF86C01016841F024
:10085000805101600021006800F0805000900098F5
:10086000DFF858010091026842F4804202600122E0
:10087000006800F48040009006A8009906920221CA
:100880004FF480020C910D9208214FF4A8720E9142
:100890000F9202210722079310911192FFF774FC27
:1008A00002210291002203920F204FF4A0510190E7
:1008B00004914FF480520592052101A800F08EF8B2
:1008C00013B000BD142101A800F0F8BA10B5374CE0
:1008D0003B48E0614FF4E131216200206062A06298
:1008E000E0620C216063A063216304F11C00FFF748
:1008F000D9FD0121218310BD81B00020009000228C
:100900002D48416841F480414160416801F48041D3
:10091000009100990092036843F0805303600068DF
:1009200000F080500090009801B070470000000077
:100930001C00002010B586B00446FFF7C3FF2268F4
:100940001F498A422AD100200090002218480169DC
:1009500041F480210161016901F480210091009935
:1009600000924FF44061036843F0020303600222E7
:1009700000F016F81348019102920121039103221D
:1009800007210591049201A900F0AAF90022002193
:10099000272000F0B1FA272000F0CBFA06B010BDF6
:1009A000006800F0020000900098704700000020EE
:1009B00030380240000002404038024000700040E1
:1009C00000480040000402407047FEE7FEE7FEE7F3
:1009D000FEE770477047704700F0D6BA2DE9F04146
:1009E00004000F4654D0494E306800F00F00B84262
:1009F00002D200F073F84BD12068454D810712D523
:100A0000400703D5A96841F4E051A96020780107A7
:100A100003D5A86840F46040A860A968A06821F0E8
:100A2000F0010143A9602178C80729D56068012831
:100A300002D129688A0305E0022818BF032803D1E0
:100A400029688A0103D423E029688A0720D5A96888
:100A5000890840EA8100A860FFF71EFD8046A8686B
:100A6000616800F00C00B0EB810F09D0FFF714FDB6
:100A7000A0EB080041F289318842F0D303202BE03B
:100A8000306800F00F00874204D200F027F801D050
:100A9000012021E02078410705D5AA68E06822F40A
:100AA000E0520243AA602178080706D5A9682069A8
:100AB00021F4604141EAC001A96000F035F8AA685C
:100AC0001449154BC2F30312895CC84018601348DF
:100AD000006800F061FA0020BDE8F08137703168ED
:100AE00001F00F01B94270470B480D4A00681368C6
:100AF0000C49C3F3822206E00748094A00681368DC
:100B00000849C3F34232895CC8407047003C024048
:100B100000380240C4100008680000206400002073
:100B200008380240BC11000830B5144C606800F071
:100B30000C00042802D0082802D01DE0104830BD67
:100B4000226820680023410202F03F0204D5256894
:100B50000B49C5F3881003E020680A49C0F38810E8
:100B6000A1FB000100F010F82168C1F30141491C0C
:100B70004900B0FBF1F030BD024830BD04380240FE
:100B800000127A000024F400D3BBD9B1B2F5803F43
:100B90005BD2022A1ED98C46B1FBF2F102FB11C3D3
:100BA0001B0443EA1043B3FBF2FC02FB1C3380B28C
:100BB00040EA0343B3FBF2F002FB103240EA0C4080
:100BC00000237047022A05D98446B0FBF2F002FBED
:100BD00010C270474AB105D100F0010249085FEA2E
:100BE0003000704700220023704700F0F5B90B0079
:100BF0000200002100207047F7D300220023704735
:100C0000904271EB030CF2D370B5B1FA81F4B3FAF0
:100C100083F52C1BA340C4F1200532FA05F63343BB
:100C2000A2405FF00046E64002E05B085FEA320265
:100C3000841A71EB030524BF204629467641F4D37C
:100C400002000B003000002170BD70B5B1FA81F4D4
:100C5000B2FA82F5C4F120046419B4F12006DAD3A3
:100C6000B2405FF00044F440002502E052085FEA21
:100C70003303C61A71EB020E24BF3046714664413D
:100C80006D41F3D302000B002000290070BD00006D
:100C900080B50B48016841F400710160026842F4BC
:100CA00080620260016841F480710160032000F0FD
:100CB00016F9002000F070F9FFF71EFE002002BDBB
:100CC000003C024000F1010310F8011B11B110F8C3
:100CD000011BFBE7C01A7047002200F07FB900003B
:100CE0002DE9F84F0D46002669496A4A0F2304464C
:100CF00001202F68B04000EA0708804540F0C1801D
:100D00004FEA460C032707FA0CF76FEA070E6F68E5
:100D1000012F18BF022F03D0112F18BF122F12D18D
:100D2000A768D5F80C900EEA070709FA0CF949EA0A
:100D30000707A760676827EA00006F68C7F3001716
:100D4000B74038436060E068AF680EEA000007FA19
:100D50000CF73843E060B0006F68022F18BF122F05
:100D600012D1F70804EB870700F01C09D7F820A080
:100D700003FA09FB2AEA0B0AD5F810B00BFA09F9B5
:100D800049EA0A09C7F8209027680EEA070E2F796A
:100D900007F0030707FA0CF747EA0E0727606F68AA
:100DA000FF006ED5002700974FEA960C176847F4AE
:100DB0008047176000F00C00176807F48047009721
:100DC00003FA00FE009F344F57F82C7027EA0E0EEE
:100DD000324FBC4208BF002722D0314FBC4208BF6F
:100DE00001271DD02F4FBC4208BF022718D02E4F1D
:100DF000BC4208BF032713D02C4FBC4208BF0427B6
:100E00000ED02B4FBC4208BF052709D0294FBC424A
:100E100008BF062704D0284FBC420CBF072708276D
:100E200007FA00F01C4F40EA0E0047F82C006FEA6A
:100E300008000F6800EA070C6F68FF0348BF48EA24
:100E40000C0CC1F800C04F6800EA070C6F68BF03C4
:100E500048BF48EA0C0CC1F804C08F6800EA070CD0
:100E60006F68FF0248BF48EA0C0CC1F808C0CF68A1
:100E700000EA070C6868800248BF48EA0C0CC1F819
:100E80000CC0761C0F2E7FF633AFBDE8F18F00004B
:100E9000003C014044380240083801400000024054
:100EA0000004024000080240000C02400010024012
:100EB0000014024000180240001C0240002200F012
:100EC000BDB800000901020002D4294881547047CE
:100ED000284B02F00F021A4402F8041C7047264BFC
:100EE00019684FF6FF020002114000F4E060084369
:100EF000224908431860704770B51F4B1C68C4F343
:100F000002230124C3F10705052D2EBF0F2504FA86
:100F100005F56D1E1E1D072E34BF0023DB1E294064
:100F2000994004FA03F3BDE870405B1E1A40114378
:100F3000C8E7010007D4012200F01F01104B8A40CE
:100F4000400943F82020704710B5401EB0F1807F63
:100F500001D3012010BD0B4C60600F214FF0FF301A
:100F6000FFF7B0FF0021A16007202060002010BD26
:100F700000E400E018ED00E00CED00E00000FA05F0
:100F800000E100E010E000E00248416802788A18C1
:100F9000426070475C00002038B50D4D0D4B2A783B
:100FA00004464FF47A711868B1FBF2F2B0FBF2F02C
:100FB000FFF7CAFF50B9102C08D2002221464FF08B
:100FC000FF30FFF799FFAC60002032BD012032BD39
:100FD0005C0000206800002070470000401810F0FE
:100FE000030308D0C91A1FD3DB0748BF00F8012D3F
:100FF00028BF20F8022D130030B4144615461039CE
:1010000028BF20E93C00FAD8490728BF20E90C0096
:1010100048BF40F8042D890028BF20F8022D48BFA2
:1010200000F8012D30BC7047C91818BF00F8012D19
:10103000CB0728BF00F8012D7047000000B500BFA6
:10104000130096469446103928BFA0E80C50FAD8F1
:101050005FEA417C28BF0CC048BF40F8042BC90799
:1010600028BF20F8022B48BF00F8012B00BD30B587
:10107000016884684218416802EB5103C90703D52F
:101080004C4401E0491C05D19A420AD012F9011BD7
:1010900012F8015B002904F8015BF3D4491EF7D56F
:1010A000F2E70C3030BD00000448054A016841F405
:1010B000700101604FF000601060704788ED00E043
:1010C00008ED00E000000000000000000102030441
:1010D000060708097365742D75702072656164795F
:1010E0002073746172742074686520636F6D6D7510
:1010F0006E69636174696F6E0D0A000010B507496F
:1011000079441831064C7C44163404E00A68081D02
:10111000114488470146A142F8D110BD2C000000BF
:10112000380000004EF68851CEF20001086840F405
:1011300070000860BFF34F8FBFF36F8F4FF00070E8
:10114000E1EE100A7047000027FFFFFFBC0100001E
:10115000320000000000002000F00DF8002801D04F
:10116000FFF7CCFFAFF300800020AFF30080FFF764
:10117000FDFA00F002F80120704700F001B800000D
:101180000746384600F002F8FBE7000080B5AFF3F1
:101190000080024A11001820ABBEFBE726000200C7
:1011A0000148804701480047A9100008B111000814
:1011B000AFF30080FFF7B6FFFFF7CEFF000000009F
:1011C00001020304FFF7FEBFFFF7FEBFFFF7FEBFFC
:1011D000FFF7FEBFFFF7FEBFFFF7FEBFFFF7FEBF43
:1011E000FFF7FEBFFFF7FEBFFFF7FEBFFFF7FEBF33
:1011F000FFF7FEBFFFF7FEBFFFF7FEBFFFF7FEBF23
:10120000FFF7FEBFFFF7FEBFFFF7FEBFFFF7FEBF12
:10121000FFF7FEBFFFF7FEBFFFF7FEBFFFF7FEBF02
:10122000FFF7FEBFFFF7FEBFFFF7FEBFFFF7FEBFF2
:10123000FFF7FEBFFFF7FEBFFFF7FEBFFFF7FEBFE2
:10124000FFF7FEBFFFF7FEBFFFF7FEBFFFF7FEBFD2
:10125000FFF7FEBFFFF7FEBFFFF7FEBFFFF7FEBFC2
:10126000FFF7FEBFFFF7FEBFFFF7FEBFFFF7FEBFB2
:10127000FFF7FEBFFFF7FEBFFFF7FEBFFFF7FEBFA2
:10128000FFF7FEBFFFF7FEBFFFF7FEBFFFF7FEBF92
:10129000FFF7FEBFFFF7FEBFFFF7FEBFFFF7FEBF82
:1012A000FFF7FEBFFFF7FEBFFFF7FEBFFFF7FEBF72
:1012B000FFF7FEBFFFF7FEBFFFF7FEBFFFF7FEBF62
:1012C000FFF7FEBFFFF7FEBFFFF7FEBFFFF7FEBF52
:1012D000FFF7FEBFFFF7FEBFFFF7FEBFFFF7FEBF42
:1012E000FFF7FEBFFFF7FEBFFFF7FEBFFFF7FEBF32
:1012F000FFF7FEBFFFF7FEBFFFF7FEBFFFF7FEBF22
:10130000FFF7FEBFFFF7FEBF0001F500056FDE1E11
:10131000DC2D02B6000001F9000010FC000224F4EC
:0113200000CC
:04000005080011B12D
:00000001FF
